:103800000C943C1C0C94571C0C94571C0C94571C87
:103810000C94571C0C94571C0C94571C0C94571C5C
:103820000C94571C0C94571C0C94571C0C94571C4C
:103830000C94571C0C94571C0C94571C0C94571C3C
:103840000C94571C0C94571C0C94571C0C94571C2C
:103850000C94571C0C94571C0C94571C0C94571C1C
:103860000C94571C0C94571C0005011E9406010271
:1038700033320000000000DF11241FBECFEFD4E080
:10388000DEBFCDBF11E0A0E0B1E0E0EAFDE302C0A1
:1038900005900D92A030B107D9F711E0A0E0B1E09A
:1038A00001C01D92A538B107E1F70C94391D0C94A5
:1038B000001CA0E0B1E00E94C81E802D282F3327F5
:1038C000822F8057803410F4209366000895982F3B
:1038D0008091C00085FFFCCF9093C6008091C0000E
:1038E00086FFFCCF8091C00080648093C000089563
:1038F000E0E8F0E0849199278F3F910519F480E08A
:1039000090E0089581E090E0089514B817B81AB8CF
:1039100015B818B81BB882E28093C00088E1809384
:10392000C10086E08093C20081E080936E0082E057
:1039300085BD87E085BB13BE10BE08958091C00091
:103940008823E4F78091C6009927089507B600FC04
:10395000FDCFF999FECFFC0160935700E895FFFF7A
:10396000000007B600FCFDCF08959C0107B600FCDF
:10397000FDCFF999FECF81E00901FB01809357004B
:10398000E895FFFF0000112407B600FCFDCF089565
:10399000DF92EF92FF920F931F93CF93DF937C01FF
:1039A000D62EC0E0D0E000E011E0C7010296C817B3
:1039B000D90718F40E949E1C01C08FEFF801808384
:1039C00021960F5F1F4FC238D1057CF3C0E0D0E0D5
:1039D000009182011091830180918401883709F060
:1039E0003FC0F6E4DF16E1F5C0E0D1E08991282F71
:1039F000332789919927982F8827609182017091A8
:103A00008301822B932B0E94B51C8091820190919F
:103A10008301029690938301809382018EEF9FEF42
:103A2000E80EF91EE114F10409F7007865E0C80119
:103A30000E94A61C61E1C8010E94A61C809182011F
:103A4000909183019C0120788217930731F02058D0
:103A50003F4F30938301209382018DE090E001C0BD
:103A6000CE01DF91CF911F910F91FF90EF90DF90EA
:103A70000895CFEFD4E0DEBFCDBFFF24C12CACE171
:103A8000DA2EF89401E005BF12E015BFA89514BE28
:103A900080916000886180936000109260000E94B5
:103AA000591C1093C0001092C50080E18093C4009F
:103AB00088E18093C10086E08093C20085E0809316
:103AC000810006BB87EF92EC909385008093840081
:103AD000B09926C08091C00087FF1EC06091C600CB
:103AE0006B3119F46093000117C06A3AA9F4809110
:103AF00000018B3179F48DE40E94671C8BE40E94F5
:103B0000671C82E40E94671C8CE40E94671CF1E041
:103B1000FF2E02C010920001B09902C0FF20D1F226
:103B200010928100C1E0C6BBFC1689F10E94781C8E
:103B3000892B39F00E94851CC5BF15BE0E9400006C
:103B400026C08DE00E94671C8AE00E94671C86E503
:103B50000E94671C80E30E94671C8EE20E94671C23
:103B600085E30E94671C82E60E94671C8AE30E942C
:103B7000671C8DE40E94671C8BE40E94671C82E432
:103B80000E94671C8CE40E94671CF60109950E9444
:103B90009E1C813611F489E5CFC0813499F40E94CE
:103BA0009E1C99279093830180938201182F0027F0
:103BB0000E949E1C9927082B192B109383010093B8
:103BC00082018BC0823641F489E50E94671C80E047
:103BD0000E94671C80E8B0C0823489F40E949E1C59
:103BE0009927182F00270E949E1C9927082B192B14
:103BF0000E949E1C682FC8010E94C81C9DC083366D
:103C000029F485EB0E94671C8FEC96C0853609F07D
:103C100066C0809184018837F9F410928301109274
:103C2000820163E080918201909183010E94A61C31
:103C300061E180918201909183010E94A61C809194
:103C400082019091830180589F4F909383018093CC
:103C500082018050984328F361E180918201909124
:103C600083010E94A61C8FEFE0E0F1E0819391E0D8
:103C7000EF37F907D9F3D0F3A0E7B1E0E8E6F8E3CE
:103C800084918D93319621E0AF37B207C9F3C0F329
:103C900060E8E62E67E3F62E00E810E0C0E0D1E031
:103CA0008991282F332789919927982F8827B70141
:103CB000822B932B0E94B51C82E090E0E80EF91E47
:103CC0000250104069F765E080E897E30E94A61C67
:103CD00061E180E897E30E94A61C8DE02DC0853449
:103CE00011F48DE050CF843729F488E70E94671CD7
:103CF00081E022C0843529F40E949E1C80938401B7
:103D0000ECCF8A3A59F48DE40E94671C8BE40E9440
:103D1000671C82E40E94671C8CE40EC0863541F467
:103D200080E30E94671C85E30E94671C82E604C052
:103D30008B3109F42CCF8FE30E94671C28CF0197A9
:103D40002FEF8F3F920729F02CE7215027FFFDCF5F
:103D5000F6CF089507B600FCFDCFFC0160FD60932F
:103D60005700C895802DE395C895902D0895982FFC
:103D700007B600FCFDCFF999FECF89E0092E8093AC
:103D80005700E895FFFF000007B600FCFDCF08953F
:103D9000F999FECFB2BDA1BDF89A119600B408956D
:0400000300003800C1
:00000001FF
